{
  "contractName": "DDNS",
  "abi": [
    {
      "constant": false,
      "inputs": [
        {
          "name": "amount",
          "type": "uint256"
        }
      ],
      "name": "withdraw",
      "outputs": [],
      "payable": false,
      "stateMutability": "nonpayable",
      "type": "function"
    },
    {
      "constant": true,
      "inputs": [],
      "name": "reserveDuration",
      "outputs": [
        {
          "name": "",
          "type": "uint256"
        }
      ],
      "payable": false,
      "stateMutability": "view",
      "type": "function"
    },
    {
      "constant": true,
      "inputs": [
        {
          "name": "",
          "type": "uint256"
        }
      ],
      "name": "pricesForShortDomains",
      "outputs": [
        {
          "name": "",
          "type": "uint256"
        }
      ],
      "payable": false,
      "stateMutability": "view",
      "type": "function"
    },
    {
      "constant": true,
      "inputs": [],
      "name": "owner",
      "outputs": [
        {
          "name": "",
          "type": "address"
        }
      ],
      "payable": false,
      "stateMutability": "view",
      "type": "function"
    },
    {
      "constant": true,
      "inputs": [],
      "name": "price",
      "outputs": [
        {
          "name": "",
          "type": "uint256"
        }
      ],
      "payable": false,
      "stateMutability": "view",
      "type": "function"
    },
    {
      "constant": true,
      "inputs": [
        {
          "name": "",
          "type": "address"
        },
        {
          "name": "",
          "type": "uint256"
        }
      ],
      "name": "receipts",
      "outputs": [
        {
          "name": "amountPaidWei",
          "type": "uint256"
        },
        {
          "name": "timestamp",
          "type": "uint256"
        },
        {
          "name": "expires",
          "type": "uint256"
        }
      ],
      "payable": false,
      "stateMutability": "view",
      "type": "function"
    },
    {
      "anonymous": false,
      "inputs": [
        {
          "indexed": false,
          "name": "actor",
          "type": "address"
        },
        {
          "indexed": false,
          "name": "domain",
          "type": "bytes"
        },
        {
          "indexed": false,
          "name": "weiPaid",
          "type": "uint256"
        },
        {
          "indexed": false,
          "name": "expires",
          "type": "uint256"
        }
      ],
      "name": "domainRegisteredEvent",
      "type": "event"
    },
    {
      "anonymous": false,
      "inputs": [
        {
          "indexed": false,
          "name": "actor",
          "type": "address"
        },
        {
          "indexed": false,
          "name": "domain",
          "type": "bytes"
        },
        {
          "indexed": false,
          "name": "weiPaid",
          "type": "uint256"
        },
        {
          "indexed": false,
          "name": "expires",
          "type": "uint256"
        }
      ],
      "name": "domainExtendedEvent",
      "type": "event"
    },
    {
      "anonymous": false,
      "inputs": [
        {
          "indexed": false,
          "name": "actor",
          "type": "address"
        },
        {
          "indexed": false,
          "name": "domain",
          "type": "bytes"
        },
        {
          "indexed": false,
          "name": "oldIP",
          "type": "bytes"
        },
        {
          "indexed": false,
          "name": "newIP",
          "type": "bytes"
        }
      ],
      "name": "domainEditedEvent",
      "type": "event"
    },
    {
      "anonymous": false,
      "inputs": [
        {
          "indexed": false,
          "name": "actor",
          "type": "address"
        },
        {
          "indexed": false,
          "name": "domain",
          "type": "bytes"
        },
        {
          "indexed": false,
          "name": "newOwner",
          "type": "address"
        }
      ],
      "name": "domainTransferedEvent",
      "type": "event"
    },
    {
      "constant": false,
      "inputs": [
        {
          "name": "domain",
          "type": "bytes"
        },
        {
          "name": "ipfsAddress",
          "type": "bytes"
        }
      ],
      "name": "register",
      "outputs": [],
      "payable": true,
      "stateMutability": "payable",
      "type": "function"
    },
    {
      "constant": false,
      "inputs": [
        {
          "name": "domain",
          "type": "bytes"
        },
        {
          "name": "newIpfsAddress",
          "type": "bytes"
        }
      ],
      "name": "edit",
      "outputs": [],
      "payable": false,
      "stateMutability": "nonpayable",
      "type": "function"
    },
    {
      "constant": false,
      "inputs": [
        {
          "name": "domain",
          "type": "bytes"
        },
        {
          "name": "newOwner",
          "type": "address"
        }
      ],
      "name": "transferDomain",
      "outputs": [],
      "payable": false,
      "stateMutability": "nonpayable",
      "type": "function"
    },
    {
      "constant": true,
      "inputs": [
        {
          "name": "domain",
          "type": "bytes"
        }
      ],
      "name": "getIP",
      "outputs": [
        {
          "name": "",
          "type": "bytes"
        }
      ],
      "payable": false,
      "stateMutability": "view",
      "type": "function"
    },
    {
      "constant": true,
      "inputs": [
        {
          "name": "domain",
          "type": "bytes"
        }
      ],
      "name": "getPrice",
      "outputs": [
        {
          "name": "",
          "type": "uint256"
        }
      ],
      "payable": false,
      "stateMutability": "view",
      "type": "function"
    },
    {
      "constant": true,
      "inputs": [
        {
          "name": "account",
          "type": "address"
        }
      ],
      "name": "getReceipts",
      "outputs": [
        {
          "components": [
            {
              "name": "amountPaidWei",
              "type": "uint256"
            },
            {
              "name": "timestamp",
              "type": "uint256"
            },
            {
              "name": "expires",
              "type": "uint256"
            }
          ],
          "name": "",
          "type": "tuple[]"
        }
      ],
      "payable": false,
      "stateMutability": "view",
      "type": "function"
    },
    {
      "constant": true,
      "inputs": [
        {
          "name": "domain",
          "type": "bytes"
        }
      ],
      "name": "isDomainFree",
      "outputs": [
        {
          "name": "",
          "type": "bool"
        }
      ],
      "payable": false,
      "stateMutability": "view",
      "type": "function"
    },
    {
      "constant": true,
      "inputs": [
        {
          "name": "domain",
          "type": "bytes"
        }
      ],
      "name": "getOwnerOf",
      "outputs": [
        {
          "name": "",
          "type": "address"
        }
      ],
      "payable": false,
      "stateMutability": "view",
      "type": "function"
    },
    {
      "constant": true,
      "inputs": [
        {
          "name": "domain",
          "type": "bytes"
        }
      ],
      "name": "getExpirationDate",
      "outputs": [
        {
          "name": "",
          "type": "uint256"
        }
      ],
      "payable": false,
      "stateMutability": "view",
      "type": "function"
    }
  ],
  "bytecode": "0x60606040526101406040519081016040528069010f0cf064dd5920000069ffffffffffffffffffff168152602001683635c9adc5dea0000069ffffffffffffffffffff168152602001681b1ae4d6e2ef50000069ffffffffffffffffffff16815260200168056bc75e2d6310000069ffffffffffffffffffff1681526020016802b5e3af16b188000069ffffffffffffffffffff168152602001678ac7230489e8000069ffffffffffffffffffff168152602001674563918244f4000069ffffffffffffffffffff168152602001671bc16d674ec8000069ffffffffffffffffffff1681526020016714d1120d7b16000069ffffffffffffffffffff168152602001670f43fc2c04ee000069ffffffffffffffffffff16815250600190600a6200012b92919062000186565b506301e13380600b55670de0b6b3a7640000600c55336000806101000a81548173ffffffffffffffffffffffffffffffffffffffff021916908373ffffffffffffffffffffffffffffffffffffffff16021790555062000201565b82600a8101928215620001c6579160200282015b82811115620001c5578251829069ffffffffffffffffffff169055916020019190600101906200019a565b5b509050620001d59190620001d9565b5090565b620001fe91905b80821115620001fa576000816000905550600101620001e0565b5090565b90565b6119aa80620002116000396000f3006060604052600436106100db576000357c0100000000000000000000000000000000000000000000000000000000900463ffffffff168063079fd272146100e057806321ab6b7a1461017d5780632e1a7d4d146101ee5780635f5402c2146102115780636b4dd1581461023a5780637ec78862146102ab5780638334557a146103205780638da5cb5b146103575780639df35ba7146103ac578063a035b1fe14610428578063a08ad97d14610451578063a23c306a146104b5578063a3747fef14610555578063b21659f2146105ea578063f2702127146106c0575b600080fd5b34156100eb57600080fd5b61013b600480803590602001908201803590602001908080601f01602080910402602001604051908101604052809392919081815260200183838082843782019150505050505091905050610749565b604051808273ffffffffffffffffffffffffffffffffffffffff1673ffffffffffffffffffffffffffffffffffffffff16815260200191505060405180910390f35b341561018857600080fd5b6101d8600480803590602001908201803590602001908080601f016020809104026020016040519081016040528093929190818152602001838380828437820191505050505050919050506107f6565b6040518082815260200191505060405180910390f35b34156101f957600080fd5b61020f600480803590602001909190505061086e565b005b341561021c57600080fd5b610224610957565b6040518082815260200191505060405180910390f35b341561024557600080fd5b610295600480803590602001908201803590602001908080601f0160208091040260200160405190810160405280939291908181526020018383808284378201915050505050509190505061095d565b6040518082815260200191505060405180910390f35b34156102b657600080fd5b610306600480803590602001908201803590602001908080601f0160208091040260200160405190810160405280939291908181526020018383808284378201915050505050509190505061099b565b604051808215151515815260200191505060405180910390f35b341561032b57600080fd5b6103416004808035906020019091905050610a15565b6040518082815260200191505060405180910390f35b341561036257600080fd5b61036a610a2f565b604051808273ffffffffffffffffffffffffffffffffffffffff1673ffffffffffffffffffffffffffffffffffffffff16815260200191505060405180910390f35b34156103b757600080fd5b610426600480803590602001908201803590602001908080601f0160208091040260200160405190810160405280939291908181526020018383808284378201915050505050509190803573ffffffffffffffffffffffffffffffffffffffff16906020019091905050610a54565b005b341561043357600080fd5b61043b610c60565b6040518082815260200191505060405180910390f35b341561045c57600080fd5b610491600480803573ffffffffffffffffffffffffffffffffffffffff16906020019091908035906020019091905050610c66565b60405180848152602001838152602001828152602001935050505060405180910390f35b34156104c057600080fd5b610553600480803590602001908201803590602001908080601f0160208091040260200160405190810160405280939291908181526020018383808284378201915050505050509190803590602001908201803590602001908080601f01602080910402602001604051908101604052809392919081815260200183838082843782019150505050505091905050610cac565b005b6105e8600480803590602001908201803590602001908080601f0160208091040260200160405190810160405280939291908181526020018383808284378201915050505050509190803590602001908201803590602001908080601f01602080910402602001604051908101604052809392919081815260200183838082843782019150505050505091905050610fbe565b005b34156105f557600080fd5b610645600480803590602001908201803590602001908080601f016020809104026020016040519081016040528093929190818152602001838380828437820191505050505050919050506115da565b6040518080602001828103825283818151815260200191508051906020019080838360005b8381101561068557808201518184015260208101905061066a565b50505050905090810190601f1680156106b25780820380516001836020036101000a031916815260200191505b509250505060405180910390f35b34156106cb57600080fd5b6106f7600480803573ffffffffffffffffffffffffffffffffffffffff16906020019091905050611705565b60405180806020018281038252838181518152602001915080516000925b818410156107385782849060200190602002015181526020019260010192610715565b925050509250505060405180910390f35b60006107548261099b565b15151561076057600080fd5b600d826040518082805190602001908083835b6020831015156107985780518252602082019150602081019050602083039250610773565b6001836020036101000a038019825116818451168082178552505050505050905001915050908152602001604051809103902060020160009054906101000a900473ffffffffffffffffffffffffffffffffffffffff169050919050565b6000600d826040518082805190602001908083835b602083101515610830578051825260208201915060208101905060208303925061080b565b6001836020036101000a0380198251168184511680821785525050505050509050019150509081526020016040518091039020600001549050919050565b6000809054906101000a900473ffffffffffffffffffffffffffffffffffffffff168073ffffffffffffffffffffffffffffffffffffffff163373ffffffffffffffffffffffffffffffffffffffff161415156108ca57600080fd5b81803073ffffffffffffffffffffffffffffffffffffffff1631101515156108f157600080fd5b6000809054906101000a900473ffffffffffffffffffffffffffffffffffffffff1673ffffffffffffffffffffffffffffffffffffffff166108fc849081150290604051600060405180830381858888f19350505050151561095257600080fd5b505050565b600b5481565b600080825111151561096b57fe5b600a8251111561097f57600c549050610996565b600180835103600a8110151561099157fe5b015490505b919050565b600042600d836040518082805190602001908083835b6020831015156109d657805182526020820191506020810190506020830392506109b1565b6001836020036101000a038019825116818451168082178552505050505050905001915050908152602001604051809103902060000154109050919050565b600181600a81101515610a2457fe5b016000915090505481565b6000809054906101000a900473ffffffffffffffffffffffffffffffffffffffff1681565b3373ffffffffffffffffffffffffffffffffffffffff16610a7483610749565b73ffffffffffffffffffffffffffffffffffffffff16141515610a9657600080fd5b610a9f8261099b565b151515610aab57600080fd5b7fa8ba65193b825256ff20234fcde3223e939e6cc8313c17a58cca837216082afa338383604051808473ffffffffffffffffffffffffffffffffffffffff1673ffffffffffffffffffffffffffffffffffffffff168152602001806020018373ffffffffffffffffffffffffffffffffffffffff1673ffffffffffffffffffffffffffffffffffffffff168152602001828103825284818151815260200191508051906020019080838360005b83811015610b73578082015181840152602081019050610b58565b50505050905090810190601f168015610ba05780820380516001836020036101000a031916815260200191505b5094505050505060405180910390a180600d836040518082805190602001908083835b602083101515610be85780518252602082019150602081019050602083039250610bc3565b6001836020036101000a038019825116818451168082178552505050505050905001915050908152602001604051809103902060020160006101000a81548173ffffffffffffffffffffffffffffffffffffffff021916908373ffffffffffffffffffffffffffffffffffffffff1602179055505050565b600c5481565b600e60205281600052604060002081815481101515610c8157fe5b9060005260206000209060030201600091509150508060000154908060010154908060020154905083565b80606480825111151515610cbf57600080fd5b3373ffffffffffffffffffffffffffffffffffffffff16610cdf85610749565b73ffffffffffffffffffffffffffffffffffffffff16141515610d0157600080fd5b7f572b04cc06fd3b3d1088497d4a9c4e32ade0424c840e4c4a32a1651eff3e8aee3385600d876040518082805190602001908083835b602083101515610d5c5780518252602082019150602081019050602083039250610d37565b6001836020036101000a038019825116818451168082178552505050505050905001915050908152602001604051809103902060010186604051808573ffffffffffffffffffffffffffffffffffffffff1673ffffffffffffffffffffffffffffffffffffffff168152602001806020018060200180602001848103845287818151815260200191508051906020019080838360005b83811015610e0d578082015181840152602081019050610df2565b50505050905090810190601f168015610e3a5780820380516001836020036101000a031916815260200191505b50848103835286818154600181600116156101000203166002900481526020019150805460018160011615610100020316600290048015610ebc5780601f10610e9157610100808354040283529160200191610ebc565b820191906000526020600020905b815481529060010190602001808311610e9f57829003601f168201915b5050848103825285818151815260200191508051906020019080838360005b83811015610ef6578082015181840152602081019050610edb565b50505050905090810190601f168015610f235780820380516001836020036101000a031916815260200191505b5097505050505050505060405180910390a182600d856040518082805190602001908083835b602083101515610f6e5780518252602082019150602081019050602083039250610f49565b6001836020036101000a03801982511681845116808217855250505050505090500191505090815260200160405180910390206001019080519060200190610fb79291906117c8565b5050505050565b60008060008085516001808210151515610fd757600080fd5b87606480825111151515610fea57600080fd5b88606480825111151515610ffd57600080fd5b6110068c61095d565b80341015151561101557600080fd5b61101e8d61095d565b3481151561102857fe5b049a506110348d61099b565b995061103f8d610749565b9850898061107857503373ffffffffffffffffffffffffffffffffffffffff168973ffffffffffffffffffffffffffffffffffffffff16145b151561108357600080fd5b891561132857600b548b0242019750600e60003373ffffffffffffffffffffffffffffffffffffffff1673ffffffffffffffffffffffffffffffffffffffff16815260200190815260200160002080548060010182816110e39190611848565b916000526020600020906003020160006060604051908101604052803481526020014281526020018c81525090919091506000820151816000015560208201518160010155604082015181600201555050506060604051908101604052808981526020018d81526020013373ffffffffffffffffffffffffffffffffffffffff16815250600d8e6040518082805190602001908083835b60208310151561119f578051825260208201915060208101905060208303925061117a565b6001836020036101000a03801982511681845116808217855250505050505090500191505090815260200160405180910390206000820151816000015560208201518160010190805190602001906111f892919061187a565b5060408201518160020160006101000a81548173ffffffffffffffffffffffffffffffffffffffff021916908373ffffffffffffffffffffffffffffffffffffffff1602179055509050507f5a0f1b3ebdeebe99a2e841b3f4e7135bdf0eaeb258d520cffe47571fa15afca6338e348b604051808573ffffffffffffffffffffffffffffffffffffffff1673ffffffffffffffffffffffffffffffffffffffff16815260200180602001848152602001838152602001828103825285818151815260200191508051906020019080838360005b838110156112e65780820151818401526020810190506112cb565b50505050905090810190601f1680156113135780820380516001836020036101000a031916815260200191505b509550505050505060405180910390a16115cb565b3373ffffffffffffffffffffffffffffffffffffffff168973ffffffffffffffffffffffffffffffffffffffff1614156115ca57600b548b02600d8e6040518082805190602001908083835b6020831015156113995780518252602082019150602081019050602083039250611374565b6001836020036101000a038019825116818451168082178552505050505050905001915050908152602001604051809103902060000154019750600e60003373ffffffffffffffffffffffffffffffffffffffff1673ffffffffffffffffffffffffffffffffffffffff16815260200190815260200160002080548060010182816114249190611848565b916000526020600020906003020160006060604051908101604052803481526020014281526020018c815250909190915060008201518160000155602082015181600101556040820151816002015550505087600d8e6040518082805190602001908083835b6020831015156114af578051825260208201915060208101905060208303925061148a565b6001836020036101000a0380198251168184511680821785525050505050509050019150509081526020016040518091039020600001819055507f5a0f1b3ebdeebe99a2e841b3f4e7135bdf0eaeb258d520cffe47571fa15afca6338e348b604051808573ffffffffffffffffffffffffffffffffffffffff1673ffffffffffffffffffffffffffffffffffffffff16815260200180602001848152602001838152602001828103825285818151815260200191508051906020019080838360005b8381101561158c578082015181840152602081019050611571565b50505050905090810190601f1680156115b95780820380516001836020036101000a031916815260200191505b509550505050505060405180910390a15b5b50505050505050505050505050565b6115e26118fa565b6115eb8261099b565b1515156115f757600080fd5b600d826040518082805190602001908083835b60208310151561162f578051825260208201915060208101905060208303925061160a565b6001836020036101000a03801982511681845116808217855250505050505090500191505090815260200160405180910390206001018054600181600116156101000203166002900480601f0160208091040260200160405190810160405280929190818152602001828054600181600116156101000203166002900480156116f95780601f106116ce576101008083540402835291602001916116f9565b820191906000526020600020905b8154815290600101906020018083116116dc57829003601f168201915b50505050509050919050565b61170d61190e565b600e60008373ffffffffffffffffffffffffffffffffffffffff1673ffffffffffffffffffffffffffffffffffffffff168152602001908152602001600020805480602002602001604051908101604052809291908181526020016000905b828210156117bd57838290600052602060002090600302016060604051908101604052908160008201548152602001600182015481526020016002820154815250508152602001906001019061176c565b505050509050919050565b828054600181600116156101000203166002900490600052602060002090601f016020900481019282601f1061180957805160ff1916838001178555611837565b82800160010185558215611837579182015b8281111561183657825182559160200191906001019061181b565b5b5090506118449190611922565b5090565b815481835581811511611875576003028160030283600052602060002091820191016118749190611947565b5b505050565b828054600181600116156101000203166002900490600052602060002090601f016020900481019282601f106118bb57805160ff19168380011785556118e9565b828001600101855582156118e9579182015b828111156118e85782518255916020019190600101906118cd565b5b5090506118f69190611922565b5090565b602060405190810160405280600081525090565b602060405190810160405280600081525090565b61194491905b80821115611940576000816000905550600101611928565b5090565b90565b61197b91905b8082111561197757600080820160009055600182016000905560028201600090555060030161194d565b5090565b905600a165627a7a7230582002c76075b558d7a59a4f71b8dd5e1299bac3056a0a2e20de7e4a3f1b8b70466f0029",
  "source": "pragma solidity 0.4.19;\r\n\r\ncontract ContractWithCommonModifiers {\r\n    modifier isMsgFrom(address expected){ \r\n        require(msg.sender == expected);\r\n        _;\r\n    }\r\n    \r\n    modifier timePassedSince(uint minSeconds, uint since){ \r\n        require(block.timestamp - since >= minSeconds);\r\n        _;\r\n    }\r\n    \r\n    modifier paidAtLeast(uint minWei){ \r\n        require(msg.value >= minWei);\r\n        _;\r\n    }\r\n    \r\n    modifier contractHasAtLeast(uint minWei){ \r\n        require(address(this).balance >= minWei);\r\n        _;\r\n    }\r\n    \r\n    modifier numberIsAtMost(uint num, uint max){ \r\n        require(num <= max);\r\n        _;\r\n    }\r\n    \r\n    modifier numberIsAtLeast(uint num, uint min){ \r\n        require(num >= min);\r\n        _;\r\n    }\r\n    \r\n    modifier isTrue(bool condition){ \r\n        require(condition);\r\n        _;\r\n    }\r\n    \r\n    modifier isShorterThanOrEqual(bytes input, uint maxLen){ \r\n        require(input.length <= maxLen);\r\n        _;\r\n    }\r\n}\r\n\r\ncontract Owned is ContractWithCommonModifiers {\r\n    address public owner;\r\n\r\n    function Owned() public {\r\n        owner = msg.sender;\r\n    }\r\n\r\n    // Returns IP or IPFS address\r\n    function withdraw(uint amount) public isMsgFrom(owner) contractHasAtLeast(amount) {\r\n        owner.transfer(amount);\r\n    }\r\n}\r\n\r\ncontract DDNS is Owned {\r\n    struct Receipt {\r\n        uint amountPaidWei;\r\n        uint timestamp;\r\n        uint expires;\r\n    }\r\n\r\n    struct Domain {\r\n        uint expires;\r\n        bytes ipfsAddress;\r\n        address owner;\r\n    }\r\n\r\n    uint[10] public pricesForShortDomains = [\r\n        5000 ether,         // 1 char\r\n        1000 ether,         // 2 chars\r\n        500 ether,          // 3 char\r\n        100 ether,          // 4 chars\r\n        50 ether,           // 5 char\r\n        10 ether,           // 6 chars\r\n        5 ether,            // 7 chars\r\n        2 ether,            // 8 chars\r\n        1.5 ether,          // 9 chars\r\n        1.1 ether           // 10 chars\r\n    ];\r\n    \r\n    uint public reserveDuration = 1 years;\r\n    uint public price = 1 ether;\r\n\r\n    mapping (bytes => Domain) domains;\r\n    mapping (address => Receipt[]) public receipts;\r\n\r\n    event domainRegisteredEvent (address actor, bytes domain, uint weiPaid, uint expires);\r\n    event domainExtendedEvent (address actor, bytes domain, uint weiPaid, uint expires);\r\n    event domainEditedEvent (address actor, bytes domain, bytes oldIP, bytes newIP);\r\n    event domainTransferedEvent (address actor, bytes domain, address newOwner);\r\n\r\n    function register(bytes domain, bytes ipfsAddress) public payable \r\n        numberIsAtLeast(domain.length, 1)\r\n        isShorterThanOrEqual(domain, 100)\r\n        isShorterThanOrEqual(ipfsAddress, 100)\r\n        paidAtLeast(getPrice(domain))\r\n    {\r\n        uint paidDurations = msg.value / getPrice(domain);\r\n        bool isUnused = isDomainFree(domain);\r\n        address owner = getOwnerOf(domain);\r\n\r\n        require(isUnused || owner == msg.sender);\r\n\r\n        uint expires;\r\n\r\n        if (isUnused) {\r\n            expires = now + (paidDurations * reserveDuration);\r\n            receipts[msg.sender].push(Receipt(msg.value, block.timestamp, expires));\r\n            domains[domain] = Domain(expires, ipfsAddress, msg.sender);\r\n            domainRegisteredEvent(msg.sender, domain, msg.value, expires);\r\n        } else if (owner == msg.sender) {\r\n            expires = domains[domain].expires + (paidDurations * reserveDuration);\r\n            receipts[msg.sender].push(Receipt(msg.value, block.timestamp, expires));\r\n            domains[domain].expires = expires;\r\n            domainRegisteredEvent(msg.sender, domain, msg.value, expires);\r\n        }\r\n    }\r\n    \r\n    function edit(bytes domain, bytes newIpfsAddress) public\r\n        isShorterThanOrEqual(newIpfsAddress, 100)\r\n    {\r\n        require(getOwnerOf(domain) == msg.sender);\r\n        domainEditedEvent(msg.sender, domain, domains[domain].ipfsAddress, newIpfsAddress);\r\n        domains[domain].ipfsAddress = newIpfsAddress;\r\n    }\r\n\r\n    function transferDomain(bytes domain, address newOwner) public {\r\n        require(getOwnerOf(domain) == msg.sender);\r\n        require(!isDomainFree(domain));\r\n        domainTransferedEvent(msg.sender, domain, newOwner);\r\n        domains[domain].owner = newOwner;\r\n    }\r\n    \r\n    ///// [ VIEWS ] /////\r\n\r\n    function getIP(bytes domain) public view returns (bytes) {\r\n        require(!isDomainFree(domain));\r\n        return domains[domain].ipfsAddress;\r\n    }\r\n\r\n    function getPrice(bytes domain) public view returns (uint) {\r\n        assert(domain.length > 0);\r\n        if (domain.length > pricesForShortDomains.length) {\r\n            return price;\r\n        } else {\r\n            return pricesForShortDomains[domain.length - 1];\r\n        }\r\n    }\r\n    \r\n    function getReceipts(address account) public view returns (Receipt[]) {\r\n        return receipts[account];\r\n    }\r\n\r\n    function isDomainFree(bytes domain) public view returns (bool) {\r\n        return domains[domain].expires < block.timestamp;\r\n    }\r\n\r\n    function getOwnerOf(bytes domain) public view returns (address) {\r\n        require(!isDomainFree(domain));\r\n        return domains[domain].owner;\r\n    }\r\n\r\n    function getExpirationDate(bytes domain) public view returns (uint) {\r\n        return domains[domain].expires;\r\n    }\r\n}",
  "sourcePath": "C:\\Users\\and\\Desktop\\DDNS-Smart-Contract\\test\\contracts\\ddns.sol",
  "compiler": {
    "name": "solc",
    "version": "0.4.19+commit.c4cbbb05.Emscripten.clang"
  },
  "schemaVersion": "2.0.0",
  "updatedAt": "2018-03-23T16:26:53.883Z"
}