{
  "contractName": "Owned",
  "abi": [
    {
      "constant": true,
      "inputs": [],
      "name": "owner",
      "outputs": [
        {
          "name": "",
          "type": "address"
        }
      ],
      "payable": false,
      "stateMutability": "view",
      "type": "function"
    },
    {
      "inputs": [],
      "payable": false,
      "stateMutability": "nonpayable",
      "type": "constructor"
    },
    {
      "constant": false,
      "inputs": [
        {
          "name": "amount",
          "type": "uint256"
        }
      ],
      "name": "withdraw",
      "outputs": [],
      "payable": false,
      "stateMutability": "nonpayable",
      "type": "function"
    }
  ],
  "bytecode": "0x6060604052341561000f57600080fd5b336000806101000a81548173ffffffffffffffffffffffffffffffffffffffff021916908373ffffffffffffffffffffffffffffffffffffffff1602179055506102038061005e6000396000f30060606040526004361061004c576000357c0100000000000000000000000000000000000000000000000000000000900463ffffffff1680632e1a7d4d146100515780638da5cb5b14610074575b600080fd5b341561005c57600080fd5b61007260048080359060200190919050506100c9565b005b341561007f57600080fd5b6100876101b2565b604051808273ffffffffffffffffffffffffffffffffffffffff1673ffffffffffffffffffffffffffffffffffffffff16815260200191505060405180910390f35b6000809054906101000a900473ffffffffffffffffffffffffffffffffffffffff168073ffffffffffffffffffffffffffffffffffffffff163373ffffffffffffffffffffffffffffffffffffffff1614151561012557600080fd5b81803073ffffffffffffffffffffffffffffffffffffffff16311015151561014c57600080fd5b6000809054906101000a900473ffffffffffffffffffffffffffffffffffffffff1673ffffffffffffffffffffffffffffffffffffffff166108fc849081150290604051600060405180830381858888f1935050505015156101ad57600080fd5b505050565b6000809054906101000a900473ffffffffffffffffffffffffffffffffffffffff16815600a165627a7a723058206afed1990d6318813c3d961a733f718985daaee547e334b28f8f5b864d1b7e460029",
  "source": "pragma solidity 0.4.19;\r\n\r\ncontract ContractWithCommonModifiers {\r\n    modifier isMsgFrom(address expected){ \r\n        require(msg.sender == expected);\r\n        _;\r\n    }\r\n    \r\n    modifier timePassedSince(uint minSeconds, uint since){ \r\n        require(block.timestamp - since >= minSeconds);\r\n        _;\r\n    }\r\n    \r\n    modifier paidAtLeast(uint minWei){ \r\n        require(msg.value >= minWei);\r\n        _;\r\n    }\r\n    \r\n    modifier contractHasAtLeast(uint minWei){ \r\n        require(address(this).balance >= minWei);\r\n        _;\r\n    }\r\n    \r\n    modifier numberIsAtMost(uint num, uint max){ \r\n        require(num <= max);\r\n        _;\r\n    }\r\n    \r\n    modifier numberIsAtLeast(uint num, uint min){ \r\n        require(num >= min);\r\n        _;\r\n    }\r\n    \r\n    modifier isTrue(bool condition){ \r\n        require(condition);\r\n        _;\r\n    }\r\n    \r\n    modifier isShorterThanOrEqual(bytes input, uint maxLen){ \r\n        require(input.length <= maxLen);\r\n        _;\r\n    }\r\n}\r\n\r\ncontract Owned is ContractWithCommonModifiers {\r\n    address public owner;\r\n\r\n    function Owned() public {\r\n        owner = msg.sender;\r\n    }\r\n\r\n    // Returns IP or IPFS address\r\n    function withdraw(uint amount) public isMsgFrom(owner) contractHasAtLeast(amount) {\r\n        owner.transfer(amount);\r\n    }\r\n}\r\n\r\ncontract DDNS is Owned {\r\n    struct Receipt {\r\n        uint amountPaidWei;\r\n        uint timestamp;\r\n        uint expires;\r\n    }\r\n\r\n    struct Domain {\r\n        uint expires;\r\n        bytes ipfsAddress;\r\n        address owner;\r\n    }\r\n\r\n    uint[10] public pricesForShortDomains = [\r\n        5000 ether,         // 1 char\r\n        1000 ether,         // 2 chars\r\n        500 ether,          // 3 char\r\n        100 ether,          // 4 chars\r\n        50 ether,           // 5 char\r\n        10 ether,           // 6 chars\r\n        5 ether,            // 7 chars\r\n        2 ether,            // 8 chars\r\n        1.5 ether,          // 9 chars\r\n        1.1 ether           // 10 chars\r\n    ];\r\n    \r\n    uint public reserveDuration = 1 years;\r\n    uint public price = 1 ether;\r\n\r\n    mapping (bytes => Domain) domains;\r\n    mapping (address => Receipt[]) public receipts;\r\n\r\n    event domainRegisteredEvent (address actor, bytes domain, uint weiPaid, uint expires);\r\n    event domainExtendedEvent (address actor, bytes domain, uint weiPaid, uint expires);\r\n    event domainEditedEvent (address actor, bytes domain, bytes oldIP, bytes newIP);\r\n    event domainTransferedEvent (address actor, bytes domain, address newOwner);\r\n\r\n    function register(bytes domain, bytes ipfsAddress) public payable \r\n        numberIsAtLeast(domain.length, 1)\r\n        isShorterThanOrEqual(domain, 100)\r\n        isShorterThanOrEqual(ipfsAddress, 100)\r\n        paidAtLeast(getPrice(domain))\r\n    {\r\n        uint paidDurations = msg.value / getPrice(domain);\r\n        bool isUnused = isDomainFree(domain);\r\n        address owner = getOwnerOf(domain);\r\n\r\n        require(isUnused || owner == msg.sender);\r\n\r\n        uint expires;\r\n\r\n        if (isUnused) {\r\n            expires = now + (paidDurations * reserveDuration);\r\n            receipts[msg.sender].push(Receipt(msg.value, block.timestamp, expires));\r\n            domains[domain] = Domain(expires, ipfsAddress, msg.sender);\r\n            domainRegisteredEvent(msg.sender, domain, msg.value, expires);\r\n        } else if (owner == msg.sender) {\r\n            expires = domains[domain].expires + (paidDurations * reserveDuration);\r\n            receipts[msg.sender].push(Receipt(msg.value, block.timestamp, expires));\r\n            domains[domain].expires = expires;\r\n            domainRegisteredEvent(msg.sender, domain, msg.value, expires);\r\n        }\r\n    }\r\n    \r\n    function edit(bytes domain, bytes newIpfsAddress) public\r\n        isShorterThanOrEqual(newIpfsAddress, 100)\r\n    {\r\n        require(getOwnerOf(domain) == msg.sender);\r\n        domainEditedEvent(msg.sender, domain, domains[domain].ipfsAddress, newIpfsAddress);\r\n        domains[domain].ipfsAddress = newIpfsAddress;\r\n    }\r\n\r\n    function transferDomain(bytes domain, address newOwner) public {\r\n        require(getOwnerOf(domain) == msg.sender);\r\n        require(!isDomainFree(domain));\r\n        domainTransferedEvent(msg.sender, domain, newOwner);\r\n        domains[domain].owner = newOwner;\r\n    }\r\n    \r\n    ///// [ VIEWS ] /////\r\n\r\n    function getIP(bytes domain) public view returns (bytes) {\r\n        require(!isDomainFree(domain));\r\n        return domains[domain].ipfsAddress;\r\n    }\r\n\r\n    function getPrice(bytes domain) public view returns (uint) {\r\n        assert(domain.length > 0);\r\n        if (domain.length > pricesForShortDomains.length) {\r\n            return price;\r\n        } else {\r\n            return pricesForShortDomains[domain.length - 1];\r\n        }\r\n    }\r\n    \r\n    function getReceipts(address account) public view returns (Receipt[]) {\r\n        return receipts[account];\r\n    }\r\n\r\n    function isDomainFree(bytes domain) public view returns (bool) {\r\n        return domains[domain].expires < block.timestamp;\r\n    }\r\n\r\n    function getOwnerOf(bytes domain) public view returns (address) {\r\n        require(!isDomainFree(domain));\r\n        return domains[domain].owner;\r\n    }\r\n\r\n    function getExpirationDate(bytes domain) public view returns (uint) {\r\n        return domains[domain].expires;\r\n    }\r\n}",
  "sourcePath": "C:\\Users\\and\\Desktop\\DDNS-Smart-Contract\\test\\contracts\\ddns.sol",
  "compiler": {
    "name": "solc",
    "version": "0.4.19+commit.c4cbbb05.Emscripten.clang"
  },
  "schemaVersion": "2.0.0",
  "updatedAt": "2018-03-23T16:26:53.886Z"
}